:0E00000044C0B0C2FDCFFCCF85C3FACFF9CF0C
:10000E00F8CFF7CF21C3F5CFF4CFF3CFF2CFF1CFA7
:10001E00F0CFEFCFEECFEDCF3F065B4F666D7D2776
:10002E007F6F000858377139380037767F73397310
:10003E006631373E397D7F396400C8009001200358
:10004E00F8FFFCFFFEFFFFFF18000A00000400008F
:10005E0001002D4E414E00494E46000001000200A7
:10006E00560001006901580002006F015A0002009B
:10007E0004005C00010082015E000000F894EE278F
:10008E00ECBBF1E0FBBFEBBFE5BFF8E1F1BDE1BDBD
:10009E008DE0A2E0BB27ED938A95E9F780E094E02E
:1000AE00A0E6ED930197E9F7EAE6F0E085919591E8
:1000BE00009761F0A591B59105901590BF01F001E3
:1000CE0005900D920197E1F7FB01F0CFEFE5EDBF43
:1000DE00E4E0EEBFC0E6D1E0B7C6A0E022FCA1E0AE
:1000EE00EA2FE795E0E0E795A881EA2BEFB977993B
:1000FE0001C0FDCFA99AA99821960895E0917301A8
:10010E00EA93E0917201EA93E0917101EA93C3D808
:10011E00E0917401EA93E0917501EA93E091760122
:10012E00EA93E0917701EA93FDD8089523FE20C06B
:10013E00E3E7F1E0FA93EA93E2E7F1E0FA93EA9368
:10014E00E1E7F1E0FA93EA9380D8E4E7F1E0FA937D
:10015E00EA93E5E7F1E0FA93EA93E6E7F1E0FA9342
:10016E00EA93E7E7F1E0FA93EA93AED8E89423F83E
:10017E000895E881F0E0FA93EA933ED7E88324FEEF
:10018E0006C0E881F0E0EA5DFF4FE49101C0E8812E
:10019E00EA93A3DF2196089501DB00E010E020E052
:1001AE0030E000E010E0E0916F01F09170010E1769
:1001BE001F0708F00FC0F801E070EF2FF0E0EBBD65
:1001CE00E02FEABDE1E0F0E0FA93EA9330D90F5F59
:1001DE001F4FE9CF20E030E0EC81D901F0E0AE17FF
:1001EE00BF0708F016C0A2DF25FE03C0E0E0EA93C9
:1001FE0057D0E8EEF3E0FA93EA9319D926FC05C03E
:10020E00B69B03C0849B01C001C0F8CF2F5F3F4F48
:10021E00E3CF00916F0110917001002400160106CA
:10022E0008F00FC0F801E070EF2FF0E0EBBDE02F0B
:10023E00EABDE1E0F0E0FA93EA93F9D801501040FC
:10024E00ECCFB1DA259608951A9310E0E6E2F0E0CD
:10025E00049000926901E981F0E0EA5DFF4F04909D
:10026E0000926A0110E0123008F017C0E12FF0E0A2
:10027E00E559FE4F0F01E981F0E03197A8E3B0E0B8
:10028E00EE0FFF1FAE0FBF1FE12FF0E0EA0FFB1FB7
:10029E00E491D001EC931F5FE6CF1881229608956A
:1002AE00E881E03009F421C0A0917901B0E0EAE0E4
:1002BE00F0E043DAE0936901A0917901BB27EAE00F
:1002CE00F0E040DAE0936A01A0917801B0E0EAE054
:1002DE00F0E033DAE0936B01A0917801BB27EAE0FE
:1002EE00F0E030DAE0936C0120C0A0917301B0E031
:1002FE00EAE0F0E022DAE0936901A0917301BB27F6
:10030E00EAE0F0E01FDAE0936A01A0917201B0E03A
:10031E00EAE0F0E012DAE0936B01A0917201BB27E4
:10032E00EAE0F0E00FDAE0936C0121960895A091D7
:10033E007501B0E0EAE0F0E000DAE0936901A09127
:10034E007501BB27EAE0F0E0FDD9E0936A01A091C8
:10035E007601B0E0EAE0F0E0F0D9E0936B01A09115
:10036E007601BB27EAE0F0E0EDD9E0936C01089549
:10037E00E2E0E0936901E0E0E0936A01A091770189
:10038E00B0E0EAE0F0E0D9D9E0936B01A0917701FB
:10039E00BB27EAE0F0E0D6D9E0936C010895E0ECDB
:1003AE00E8BBEEE2E7BBE0E0E5BBEFE7E4BBE0E194
:1003BE00E2BBE0E2E1BBE0E0E3BFE2BFE3E8EFBDBA
:1003CE00E9E0EEBDE0E0EDBDECBDE7BDE6BDEBBDA9
:1003DE00EABDE2E0E9BDE0E0E8BDE2BDE7E0E5BD93
:1003EE00E0E0E4BDE3BDEBB7E064EBBFE2E0E5BF08
:1003FE00E0E4EABFE1E4E9BFE0E0EAB9E0E8E8B949
:10040E00E0E0E0BFE6B9E1E5EDB9E0E0EEB9E6BF68
:10041E0008951A93BFD7E0EAEA93F0D7EA81EA93F8
:10042E00EDD7E981EA93EAD7B5D7E1EAEA93E6D7C1
:10043E00E0E0EA93C8D71E2FBCD7E12F1881239690
:10044E000895A8D7E0EAEA93D9D7EA81EA93D6D7F6
:10045E00E981EA93D3D7E881EA93D0D7E03009F067
:10046E0003C0E0E023960895A4D7E5E0F0E0FA9308
:10047E00EA93DDD7E1E0239608951A9310E0E0E0C9
:10048E00F0E0FA93EA93C5DFE0937801E1E0F0E063
:10049E00FA93EA93BEDFE0937901E2E0F0E0FA939B
:1004AE00EA93B7DFE0937A0113E01A3008F013C035
:1004BE00ABE7B1E0E12FF0E03397EA0FFB1FFF93BC
:1004CE00EF93E12FF0E0FA93EA93A3DFAF91BF91A0
:1004DE00EC931F5FEACFEAE0F0E0FA93EA9399DF3C
:1004EE00E0936D0119910895E0E0F0E0FA93EA933C
:1004FE00E0917801EA93A5DFE1E0F0E0FA93EA9368
:10050E00E0917901EA939DDFE2E0F0E0FA93EA935D
:10051E00E0917A01EA9395DFE3E04E2EEAE04E1683
:10052E0008F010C0E42DF0E0FA93EA93ABE7B1E0E7
:10053E00E42DF0E03397AE0FBF1FEC91EA9381DF0D
:10054E004394ECCFEAE0F0E0FA93EA93E0916D0188
:10055E00EA9377DF0895AA93BA93EA93FA93EFB7E3
:10056E00EA93A0E022FCA1E0E1E0AE27E0E025FC6A
:10057E00E1E0EA230ED922F8689423F8E0917A019B
:10058E00E03009F429C0ABE7B1E0E0917401F0E08E
:10059E003197AE0FBF1FEC91E03009F40AC0A09165
:1005AE007301E0917901EA1709F003C021FC01C043
:1005BE0001C010C0A0917201E0917801EA1709F014
:1005CE0005C020FC03C026FC01C001C002C0689417
:1005DE0021F802C0E89420F821FE2FC0A0917201EC
:1005EE00E0917801F0E03596B0E0EA17FB070CF4E5
:1005FE001EC0B69903C0849901C019C0A0917301A1
:10060E00E0917901EA1709F012C0ABE7B1E0E09191
:10061E007401F0E03197AE0FBF1FEC91E03009F49A
:10062E0006C0E0917A01E03009F401C006C0E894FA
:10063E0021F8E3E8EFBD689420F8E991EFBFF99156
:10064E00E991B991A99118950A921A92FA926A9320
:10065E007A938A939A93AA93BA93EA93FA93EFB7FB
:10066E00EA93E0E0EA9339DDAA98AB98AC98AD989E
:10067E00E0916E01F0E0309709F005C0AD9AAA98AE
:10068E00AB98AC981DC0E130A0E0FA0709F005C0A8
:10069E00AC9AAA98AB98AD9813C0E230A0E0FA07D6
:1006AE0009F005C0AB9AAA98AC98AD9809C0E33092
:1006BE00A0E0FA0709F004C0AA9AAB98AC98AD98DE
:1006CE00E0916E01F0E0E759FE4FE081EA9351DDD3
:1006DE00A0916E01A33008F005C0E0916E01F0E02C
:1006EE00319601C0E0E0E0936E01E991EFBFF99120
:1006FE00E991B991A9919991899179916991F9901D
:10070E001990099018950A921A92FA926A937A930E
:10071E008A939A93AA93BA93EA93FA93EFB7EA93CA
:10072E0021FE23C0E0E8E41508F002C0E0E003C0BB
:10073E00E42DF0E031964E2E642D7727A0917201B4
:10074E00BB27E0917801F0E01DD8EA1BFB0B319638
:10075E00ACE0B0E0F2D7DB01F5D7309709F003C07B
:10076E00E3EAEFBD02C0E3E8EFBDB79905C0B69B63
:10077E0003C0849B01C001C00EC0E4E0E3BF5394EC
:10078E00ECE2F1E0FA93EA9352D6E89422F825F8D7
:10079E00689424F826F8B69905C0849903C0B799D1
:1007AE0001C001C001C025CC26FC03C0B79B01C00F
:1007BE0001C072C0B69915C0A0916F01B0917001C1
:1007CE00AF3FE3E0BE0708F403C0EFEFF3E005C070
:1007DE00E0916F01F09170013896E0936F01F09304
:1007EE007001849913C0A0916F01B0917001199797
:1007FE0008F003C0E0E0F0E005C0E0916F01F09179
:10080E0070013897E0936F01F0937001B69B03C0AF
:10081E00849B01C041C0689424F8A0916F01B091EF
:10082E007001E4E6F0E089D7DF01EAE0F0E085D779
:10083E00E0936901A0916F01B0917001E4E6F0E0E0
:10084E007CD7DF01EAE0F0E07DD7E0936A01A0916A
:10085E006F01B0917001E4E6F0E074D7DF01EAE0D9
:10086E00F0E06BD7E0936B01A0916F01B091700136
:10087E00E4E6F0E067D7DF01EAE0F0E063D7E0936B
:10088E006C01E0916F01F0917001E070EF2FF0E0DC
:10089E00EBBDE0916F01EABDB79905C0B69903C0F3
:1008AE00849B01C001C00FC0E1E0E0937A01E0E05B
:1008BE00E0936901EDE0E0936A01EAE0E0936B01F9
:1008CE00E0936C0111DEB79905C0B69B03C0849905
:1008DE0001C001C00EC0E0E0E0937A01E09369012F
:1008EE00EEE0E0936A01E0936B01EAE0E0936C01C5
:1008FE00FBDD552009F49AC2E52DF0E0E130A0E0D1
:10090E00FA0709F027C0B6990DC0A0917301A7315F
:10091E0008F402C0E0E004C0E0917301F0E031960B
:10092E00E093730184990DC0A0917301A03009F07A
:10093E0002C0E7E104C0E0917301F0E03197E0936B
:10094E007301E0E0EA93ACDCEAE0E0936C01E09343
:10095E006B016CC2E230A0E0FA0709F027C0B6992D
:10096E000DC0A0917201AB3308F402C0E0E004C0E8
:10097E00E0917201F0E03196E093720184990DC01E
:10098E00A0917201A03009F002C0EBE304C0E09127
:10099E007201F0E03197E0937201E0E0EA9380DCBF
:1009AE00EAE0E0936A01E093690140C2E330A0E01F
:1009BE00FA0709F02BC0B6990DC0A0917401A730AB
:1009CE0008F402C0E1E004C0E0917401F0E0319659
:1009DE00E093740184990DC0A0917401A23008F0C7
:1009EE0002C0E7E004C0E0917401F0E03197E093BB
:1009FE007401E0E0E0936901E0917401E0936A0113
:100A0E00EAE0E0936C01E0936B0110C2E430A0E0E9
:100A1E00FA0709F025C0B6990DC0A0917501AF3146
:100A2E0008F402C0E0E004C0E0917501F0E03196F8
:100A3E00E093750184990DC0A0917501A23008F064
:100A4E0002C0EFE104C0E0917501F0E03197E09350
:100A5E0075016DDCEAE0E0936C01E0936B01E6C199
:100A6E00E530A0E0FA0709F025C0B6990DC0A091B7
:100A7E007601AC3008F402C0E1E004C0E0917601EA
:100A8E00F0E03196E093760184990DC0A091760145
:100A9E00A23008F002C0ECE004C0E0917601F0E074
:100AAE003197E093760143DCEAE0E0936A01E0934C
:100ABE006901BCC1E630A0E0FA0709F020C0B69982
:100ACE000DC0A0917701A23308F402C0ECE004C07F
:100ADE00E0917701F0E03196E093770184990DC0B3
:100AEE00A0917701AD3008F002C0E2E304C0E091BE
:100AFE007701F0E03197E09377013ADC97C1E73068
:100B0E00A0E0FA0709F035C0B6990DC0A0916D01AD
:100B1E00A33608F402C0E1E004C0E0916D01F0E0FC
:100B2E003196E0936D0184990DC0A0916D01A230B4
:100B3E0008F002C0E3E604C0E0916D01F0E03197E9
:100B4E00E0936D01EFE0E0936901E0E1E0936A016B
:100B5E00A0916D01B0E0EAE0F0E0EFD5E0936B011B
:100B6E00A0916D01BB27EAE0F0E0ECD5E0936C01BB
:100B7E005DC1E830A0E0FA0709F027C0B69903C0BE
:100B8E00E1E0E0937A01849903C0E0E0E0937A011A
:100B9E00E0917A01E03009F40CC0E0E0E0936901E5
:100BAE00EDE0E0936A01EAE0E0936B01E0936C0103
:100BBE000BC0E0E0E0936901EEE0E0936A01E093A0
:100BCE006B01EAE0E0936C0131C1E930A0E0FA0775
:100BDE0009F027C0B6990DC0A0917901A73108F48C
:100BEE0002C0E0E004C0E0917901F0E03196E093BC
:100BFE00790184990DC0A0917901A03009F002C04D
:100C0E00E7E104C0E0917901F0E03197E0937901DA
:100C1E00E1E0EA9345DBEAE0E0936C01E0936B01DF
:100C2E0005C1EA30A0E0FA0709F027C0B6990DC059
:100C3E00A0917801AB3308F402C0E0E004C0E0916B
:100C4E007801F0E03196E093780184990DC0A0917F
:100C5E007801A03009F002C0EBE304C0E091780106
:100C6E00F0E03197E0937801E1E0EA9319DBEAE0F6
:100C7E00E0936A01E0936901D9C0EB30A0E0FA0776
:100C8E0009F018C0B69903C0E1E0E0937B018499A6
:100C9E0003C0E0E0E0937B01E0E0E0936901E1E076
:100CAE00E0936A01E0E0E0936B01E0917B01E09359
:100CBE006C01BCC0EC30A0E0FA0709F018C0B69980
:100CCE0003C0E1E0E0937C01849903C0E0E0E0938F
:100CDE007C01E0E0E0936901E2E0E0936A01E0E08C
:100CEE00E0936B01E0917C01E0936C019FC0ED30CD
:100CFE00A0E0FA0709F018C0B69903C0E1E0E0934E
:100D0E007D01849903C0E0E0E0937D01E0E0E09393
:100D1E006901E3E0E0936A01E0E0E0936B01E091AA
:100D2E007D01E0936C0182C0EE30A0E0FA0709F07D
:100D3E0018C0B69903C0E1E0E0937E01849903C028
:100D4E00E0E0E0937E01E0E0E0936901E4E0E0930F
:100D5E006A01E0E0E0936B01E0917E01E0936C01AB
:100D6E0065C0EF30A0E0FA0709F018C0B69903C0CD
:100D7E00E1E0E0937F01849903C0E0E0E0937F011E
:100D8E00E0E0E0936901E5E0E0936A01E0E0E093E2
:100D9E006B01E0917F01E0936C0148C0E031A0E06F
:100DAE00FA0709F018C0B69903C0E1E0E09380019C
:100DBE00849903C0E0E0E0938001E0E0E0936901F4
:100DCE00E6E0E0936A01E0E0E0936B01E0918001E0
:100DDE00E0936C012BC0E131A0E0FA0709F018C0D6
:100DEE00B69903C0E1E0E0938101849903C0E0E08D
:100DFE00E0938101E0E0E0936901E7E0E0936A01AE
:100E0E00E0E0E0936B01E0918101E0936C010EC094
:100E1E00E231A0E0FA0709F009C0E89426F855245B
:100E2E00E0E0E09371016AD95FDBE3C8E991EFBFBF
:100E3E00F991E991B991A9919991899179916991D4
:100E4E00F99019900990189500E010E030E0A7DABB
:100E5E00E0E0EBBDEABDEA9340D997D2E0E0EA9339
:100E6E00E1E0EA93E0E0EA93D2D1EDD2959AE0E0A8
:100E7E00F0E0FA93EA93E2EEEA93E0E5EA93E0E03B
:100E8E00EA9371D19598E3E0E3BFF7DA789468942A
:100E9E0022F8E8E0E0936C01E0936B01E0936A01C5
:100EAE00E0936901E1E0EA9377D940D930E0959A71
:100EBE00E0E0F0E0FA93EA93F8D05AD38F0130973E
:100ECE0009F411C0023EEFEF1E070CF406C0013507
:100EDE00E0E01E070CF001C006C0A32F3F5FA83C48
:100EEE0008F001C001C006C0E2E3F0E0FA93EA9315
:100EFE009ED2DECF9598ECE0E0936B01EAE0E093B2
:100F0E006C01D801EAE0F0E018D4E0936901D80151
:100F1E00EAE0F0E017D4E0936A01E1E0EA933CD90D
:100F2E00689425F8E0E0EA93BBD9E0916D01EA936D
:100F3E0033D9E89422F825F8E0917401EA9384D924
:100F4E00E89424F8E1E0EA9327D9689424F8EFD9DD
:100F5E00E1E0EA9321D90CDAE1E0EA931DD9ABE79F
:100F6E00B1E0E0917401F0E03197AE0FBF1FEC914C
:100F7E00E03009F411C0A0917901E0917301AE1730
:100F8E0008F408C0E0917201A0917801AE1708F440
:100F9E0001C001C001C013C0A0917401BB271897F6
:100FAE000CF403C0E0E0F0E003C0E0917401F0E067
:100FBE00E558FE4FE081E03009F001C006C0E09137
:100FCE007A01E03009F401C001C014C0E0E0E09302
:100FDE006901EDE0E0936A01EAE0E0936B01E093D2
:100FEE006C01E1E0EA93D8D8E1E0EA9359D9E1E067
:100FFE00EA93D2D85ACFFFCFE991F99130971AF4EC
:10100E00E095F095319608951A931DD2E03009F0CF
:10101E0004C0E0E0188123960895E981FA813097A3
:10102E0009F411C0E5E5EA9354D210E0A981BA8122
:10103E00ED91A983BA83EA934CD21F5F183008F062
:10104E0001C0F4CF03C0ECECEA9343D2E1E0188187
:10105E0023960895A3D3EC81FD81FA93EA93D4DF0E
:10106E00E03009F004C0E0E09ED326960895EEEB42
:10107E00EA932FD210E020E631E03F932F932F5FBB
:10108E003F4F22D2AF91BF91EC931F5F193008F002
:10109E0001C0F3CFE0E6F1E0FA93EA93E9E0EA93D8
:1010AE0022D233D380D3269608951A93E981FA81FA
:1010BE00FA93EA93CFDFE03009F007C0E0E0FCE3FB
:1010CE006CE176EC188123960895A0916401B0E04E
:1010DE00E5E00DD3E3701E2FE981FA81FA93EA93CE
:1010EE0093DFE03009F007C0E0E0FCE36CE176EC62
:1010FE00188123960895E4E4EA93EBD1E12FA6E458
:10110E00B0E0F0E0EE0FFF1FEA0FFB1F37D3FA93AC
:10111E00EA938DD1E981FA81FA93EA939BDFE0306D
:10112E0009F007C0E0E0FCE36CE176EC1881239651
:10113E00089589D1E12FAEE4B0E0F0E0EE0FFF1F8D
:10114E00EA0FFB1F1BD3A0916001B0916101EA234E
:10115E00FB23D6D244D2A0E0B0E080E89DE36DD26E
:10116E00188123960895EB81FC81FA93EA934CDF64
:10117E00E03009F003C0E0E025960895E881E2959D
:10118E00E07FEE0FEF61E883EEE4EA93A2D1E9810E
:10119E00EA939FD1EA81EA939CD1E881EA9399D1AF
:1011AE00EB81FC81FA93EA9355DFE03009F003C03E
:1011BE00E0E025960895A0916301EA81EA1709F00F
:1011CE000DC0A0916201E981EA1709F007C0A09154
:1011DE006401E881EA1709F001C003C0E0E025963A
:1011EE000895EB81FC81FA93EA930EDFE03009F06B
:1011FE0003C0E0E025960895E8E4EA936AD1EFE0B3
:10120E00F0E0FA93EA9313D11ED125960895EA8160
:10121E00E370EA83E981E03009F403C0EA81E0611A
:10122E00EA83E881E03009F403C0EA81E068EA83EA
:10123E00B1D0E0EDEA93E2D0E7E0EA93DFD0EA81C5
:10124E00EA93DCD0B6D023960895A4D0E0EDEA93CD
:10125E00D5D0E0E0EA93D2D09DD0E1EDEA93CED0A6
:10126E00E1E0EA93B0D0EA937BD0A881B981EC9308
:10127E00E1E0EA93A8D0EA9373D0AA81BB81EC9304
:10128E00E0E0EA93A0D0EA936BD0AC81BD81EC9301
:10129E0090D0269608957ED0E0EDEA93AFD0E0E0B0
:1012AE00EA93ACD0E881EA9367D0EA93A7D0E981BC
:1012BE00EA9362D0EA93A2D0EA81EA935DD0EA93F0
:1012CE009DD077D02396089565D0E0EDEA9396D021
:1012DE00E3E0EA9393D05ED0E1EDEA938FD0E1E0C4
:1012EE00EA9371D0EA933CD0AE81BF81EC93E1E0FA
:1012FE00EA9369D0EA9334D0AC81BD81EC93E1E0FE
:10130E00EA9361D0EA932CD0AA81BB81EC93E0E002
:10131E00EA9359D0EA9324D0A881B981EC9349D0AD
:10132E002896089537D0E0EDEA9368D0E3E0EA938B
:10133E0065D0EB81EA9320D0EA9360D0EA81EA93FC
:10134E001BD0EA935BD0E981EA9316D0EA9356D08C
:10135E00E881EA9311D0EA9351D02BD024960895C8
:10136E00E881E295EF70AE2FAA0FAA0FEA0FEE0FEB
:10137E00A991AF70EA0F0895A991EE27AA5012F025
:10138E00E05FFCCFA65FEA0F0895979896988F9A24
:10139E008E9815C08E988F98EE270000869B089524
:1013AE00879B089504D08E9A02D08F9AE1E067E071
:1013BE0007C08E9A8F9A03D08F98F9DF8E986DE0C2
:1013CE006A95F1F7089578E08F98F1DF879BFECF4D
:1013DE00EEDF8894869908948F9AF1DFEE1F7A9546
:1013EE0099F77991772311F48E9801C08E9ADFDFE9
:1013FE008F98E5DF8F9ADBDF8E98D9CFE99178E071
:10140E00EE0F10F48E9801C08E9AD9DF8F98CFDF31
:10141E00879BFECFCCDF8F9A7A9591F78E98C7DF98
:10142E008F98CDDFE1E08699EE278F9AC0CFE991B4
:10143E00F991309639F088EE93E00197F1F7A8957F
:10144E003197C9F70895EE27C098B89A80EE91E0CB
:10145E000197F1F7B89883E18A95F1F7B09B08955B
:10146E0085E68A95F1F7B09BE1E086E891E0019779
:10147E00F1F70895B89A83E08A95F1F7B8988FE05E
:10148E008A95F1F78894B0990894E7958BE68A953A
:10149E00F1F70895E894B89A83E08A95F1F770FD14
:1014AE00B89881E18A95F1F7B09903C070FF03C037
:1014BE00089570FF089584E68A95F1F7B89887E04D
:1014CE008A95F1F76894089568E0D4DF6A95E9F794
:1014DE00089568E07991EE27DDDF26F477956A9519
:1014EE00D9F7E3950895EE278881882381F068E186
:1014FE00A981BA8198E0FD917F2F7E27779508F418
:10150E00E627E795F6959A95B9F78A9599F7239672
:10151E000895552342F4503811F4E0FF04C031967B
:10152E00691F791F6BF050E8572711F45F9373C052
:10153E005F3F31F0660F000C57956795752F089534
:10154E005F9300200AF073C06CC050E8192E15226C
:10155E00880F991F9527550F879550E8072E05225E
:10156E00660F771F7527550F67950895689401C00C
:10157E00E8945F93F2DF703818F07F3F08F44BC0A9
:10158E0056E1571BAAF4519558300EF4593030F0ED
:10159E00EFEFFFEF6FEF7FE777F91AC0772755234D
:1015AE00B9F0EE0FFF1F661F771F5A95D1F710C0C7
:1015BE007727583028F0EF2FF62F672F5850F9CF96
:1015CE00552331F076956795F795E7955A95D1F7AE
:1015DE0000200AF484D05F910895689401C0E894C5
:1015EE00309760407040B1F0002426F0772312F45B
:1015FE00009475D0172E7EE1112032F07A95EE0F01
:10160E00FF1F661F111CF9CFEF2FF62F612D5F9371
:10161E008ADF5F910895EE27FF27662777275F9170
:10162E000895EFEFFFEF6FE77FEF5F910895EFEF14
:10163E00FFEF6FE77FE75F9108955F9386DF703866
:10164E0051F3903841F301240894791F23F41CF3CD
:10165E0000203AF3ECCF0F921F932F933F934F93AB
:10166E00112722279927689FA0018F9F302D410DAA
:10167E00591F6B9F300D411D591F8E9F27D0BF9F45
:10168E0025D06A9F23D0BE9F1DD0AF9F1BD0AE9F8B
:10169E00110D291F391F491F591FE32FF42F652FD5
:1016AE00522F4F913F912F911F910F9066232AF049
:1016BE00550FEE1FFF1F661F02C073954BF229DFF9
:1016CE005F910895100D211D391F02C0200D311D8F
:1016DE00491F591F0895F195E195F0400895F09531
:1016EE0060957095E195FF4F6F4F7F4F0895EE23F4
:1016FE000E2EFD0121F0F595E7950A94E1F7089578
:10170E006F2F660F660B762F0895EE23E1E009F03A
:10171E00EE2708950024112490E1AA0FBB1F001C90
:10172E00111C0E1A1F0A18F40E0E1F1E01C0A16006
:10173E009A9599F7FD01D001089512D0EBDF0EF4C2
:10174E00CADF0895E894B7FF04C0A095B09511962E
:10175E006894F7FDC0DFDEDFFD010EF4BCDF0895F7
:10176E00E894F7FF02C0B7DF6894B7FF06C0A095F4
:10177E00B095119600F8039400FA08950590F4912F
:10178E00E02D08951B2EBF2FF12D1A2EAE2FE12D19
:10179E000895E894EE2309F0689408953A932A93F5
:1017AE001A930A9308953B812A811981088108951D
:00000001FF
